:060000000A128A11D72F3D
:10000A00013464008001840A0406031900340406DA
:10001A0007288312031322088400E830F000033013
:10002A00F1002108F3002008F2000A128A1595242B
:10003A000A128A1170088313800083120313220A9A
:10004A0084000A30F7000030F8006430F000003015
:10005A00F1002108F3002008F2000A128A159524FB
:10006A000A128A117108FA007008F9000A128A1530
:10007A001B240A128A117708831380008312031340
:10008A002208023E84000A30F7000030F8000A30E5
:10009A00F0000030F1002108F3002008F2000A12F3
:1000AA008A1595240A128A117108FA007008F90053
:1000BA000A128A151B240A128A11770883138000F0
:1000CA00831203132208033E84000A30F70000302B
:1000DA00F8002108FA002008F9000A128A151B24E0
:1000EA000A128A1177088313800008008312031307
:1000FA002708B1008030B1052708A8002807B800F2
:10010A00A61F882889288A283814380803198E28AF
:10011A008F289F28380A031D932894289C2800308A
:10012A00A7000030A6000030A5000030A400A617E2
:10013A00A701A7280030A7000030A6000030A500BC
:10014A000030A40023088039B1062308A800280734
:10015A00B900A21FB128B228B328391439080319E3
:10016A00B728B828C828390A031DBC28BD28C528BD
:10017A000030A3000030A2000030A1000030A0002F
:10018A00A217A301D0280030A3000030A20000303B
:10019A00A1000030A0002308220421042004031D2A
:1001AA00D728D828EF280030A7000030A600003052
:1001BA00A5000030A4008030A6047F30A7043108CF
:1001CA00A7042708A3002608A2002508A1002408DE
:1001DA00A000442A3808031DF328F428FD2800301B
:1001EA00A3000030A2000030A1000030A000442A81
:1001FA003808A800A9012908AB0039082802AA0072
:10020A00031CAB032A087F3EB2002B080318013EE9
:10021A00003EB3002708B0002608AF002508AE004C
:10022A002408AD000030A7000030A6000030A50069
:10023A000030A4000030B7000030B6000030B5002E
:10024A000030B400B9017129390803192D292E2962
:10025A004E290130A8000310AD0DAE0DAF0DB00D43
:10026A00A80B30290130A8000310A40DA50DA60D76
:10027A00A70DA80B3929B71F432944294529241456
:10028A000130A8000310B40DB50DB60DB70DA80BBB
:10029A00472923083002031D5C2922082F02031D67
:1002AA005C2921082E02031D5C2920082D02031C4B
:1002BA005F2960296F2937172008AD022108031C1E
:1002CA00210FAE022208031C220FAF022308031CCF
:1002DA00230FB0020130B9071A303902031C7629FC
:1002EA007729292930082F042E042D0403197E2981
:1002FA007F299E2934149E290130A8000310A40DD9
:10030A00A50DA60DA70DA80B8329B71F8D298E2928
:10031A008F2924140130A8000310B40DB50DB60DB1
:10032A00B70DA80B9129FF30B2070318B30AFF30A3
:10033A00B307A61FA129A2298129B901B71FA62996
:10034A00A729C329FF303405A800FF303505A900C5
:10035A00FF303605AA007F303705AB002B082A0488
:10036A00290428040319BA29BB29BE290130B90076
:10037A00C329241CC129C229C329BB293908031945
:10038A00C729C829F9290130A40700300318013008
:10039A00A507003003180130A60700300318013002
:1003AA00A707271CD929DA29F9292408A80025082A
:1003BA00A9002608AA002708AB000130AC002B0DC3
:1003CA00AB0CAA0CA90CA80CAC0BE4292B08A700AF
:1003DA002A08A6002908A5002808A4000130B207A7
:1003EA000318B30A0030B3073308803AFF0080309D
:1003FA007F02031D022AFF303202031C052A062A45
:10040A00142AFF3083120313B2000030B300003005
:10041A00A7000030A6000030A5000030A400831217
:10042A0003133308803AFF0080307F02031D1F2A1E
:10043A00013032020318222A232A302A8312031394
:10044A00B201B3010030A7000030A6000030A500B9
:10045A000030A400B101831203133208B800381C1B
:10046A00372A382A3A2AA6173C2A7F30A60538089E
:10047A00A8000310280CA7003108A704E6280800E2
:10048A00831203135708E4008030E4055708DC00A0
:10049A005C07E600D61F522A532A542A66146608B5
:1004AA000319582A592A692A660A031D5D2A5E2AEF
:1004BA00662A0030D7000030D6000030D500003060
:1004CA00D400D617D701712A0030D7000030D600E1
:1004DA000030D5000030D4005B08E5008030E50527
:1004EA006508640603197A2A7B2A7C2A64175B0842
:1004FA00DC005C07E500DA1F832A842A852A651452
:10050A0065080319892A8A2A9A2A650A031D8E2AE6
:10051A008F2A972A0030DB000030DA000030D90039
:10052A000030D800DA17DB01A22A0030DB000030E5
:10053A00DA000030D9000030D800660865020318D6
:10054A00A72AA82ACC2A641FAB2AAC2AAE2A803052
:10055A00E4066608E7006508E6006708E50054084F
:10056A00E7005808D4006708D8005508E70059087A
:10057A00D5006708D9005608E7005A08D600670868
:10058A00DA005708E7005B08D7006708DB00E701D5
:10059A006508DC00DD015D08DF0066085C02DE003C
:1005AA00031CDF035F08803AFF0080307F02031DCF
:1005BA00E02A1A305E02031CE32AE42A192B83126A
:1005CA0003135708560455045404031DED2AEF2A51
:1005DA000130F02A0030E7000030D7000030D600A2
:1005EA000030D5000030D4006508E600212B671CD6
:1005FA00FF2A002B072B6708DC0003105C0C01386C
:10060A00E700092B0310E70C541C0C2B0D2B0E2BA7
:10061A00E7170130DC00570DD70CD60CD50CD40CDB
:10062A00DC0B102B0130E607831203136508660200
:10063A00031C202B212BFC2A641B242B252B6C2B1F
:10064A006608031D292B2A2B332B0030D7000030D4
:10065A00D6000030D5000030D400942C5808D407B6
:10066A00590803110318013E03193C2BD5075A08F0
:10067A0003110318013E0319432BD6075B08031124
:10068A000318013E03194A2BD707571C4D2B4E2B33
:10069A00202C671C512B522B592B6708DC000310A6
:1006AA005C0C0138E7005B2B0310E70C541C5E2B33
:1006BA005F2B602BE7170130DC00570DD70CD60CE7
:1006CA00D50CD40CDC0B622B0130E607202C570822
:1006DA00803AFF005B08803A7F02031D7E2B5A088E
:1006EA005602031D7E2B59085502031D7E2B5808FE
:1006FA0054020318812B822BD92BFF30DC00FF30E8
:10070A00DD00FF30DE00FF30DF005808E000590846
:10071A00E1005A08E2005B08E3005408E0025508C9
:10072A00031C550F992B9A2BE1025608031C560FEE
:10073A009F2BA02BE2025708031C570FA52BA62BB1
:10074A00E3026008DC0761080318610FAD2BAE2BCA
:10075A00DD0762080318620FB32BB42BDE076308A8
:10076A000318630ADF075F08D7005E08D6005D0832
:10077A00D5005C08D4008030E4066703FF3AE7003E
:10078A006708031DC92BCA2BE72B0130D407003099
:10079A0003180130D507003003180130D60700309E
:1007AA0003180130D707E72B5808D4025908031C4D
:1007BA00590FD5025A08031C5A0FD6025B08031CAC
:1007CA005B0FD7025708560455045404031DEE2B39
:1007DA00EF2B1C2C6708031DF32BF42B1C2C003069
:1007EA00D7000030D6000030D5000030D400942C59
:1007FA000130DC000310D40DD50DD60DD70DDC0B5E
:10080A00FF2BE71F092C0A2C0B2C5414671C0E2CE7
:10081A000F2C132C0314670DE700152C0310E70D9A
:10082A0066080319192C1A2C1C2C0130E602D61F53
:10083A001F2C202CFD2BE501E71F242C252C332C03
:10084A0067087F3903192A2C2B2C2E2C0130E5003E
:10085A00332C541C312C322C332C2B2C65080319C5
:10086A00372C382C6A2C0130D40700300318013099
:10087A00D507003003180130D607003003180130BD
:10088A00D707571C492C4A2C6A2C5408DC005508F7
:10089A00DD005608DE005708DF000130E0005F0D7A
:1008AA00DF0CDE0CDD0CDC0CE00B542C5F08D700EF
:1008BA005E08D6005D08D5005C08D400660A0319F4
:1008CA00672C682C6A2C0130E607660A03196E2C1D
:1008DA006F2C742C6608031D732C742C822C003028
:1008EA00D7000030D6000030D5000030D4006608AA
:1008FA00031D802C812C822CE401661C852C862CFD
:10090A00882CD6178A2C7F30D6056608DC0003109F
:10091A005C0CD700E41F922C932C942CD717080058
:10092A00831203133D08C7008030C7053D08C20083
:10093A004207CD00BC1FA22CA32CA42C4D144D0899
:10094A000319A82CA92CB82C4D0A031DAD2CAE2CCA
:10095A00B62C0030BD000030BC000030BB000030B7
:10096A00BA00BC17C02C0030BD000030BC000030FB
:10097A00BB000030BA0041088039C7064108C200EE
:10098A004207CC00C01FCA2CCB2CCC2C4C144C08D0
:10099A000319D02CD12CE02C4C0A031DD52CD62CB3
:1009AA00DE2C0030C1000030C0000030BF00003033
:1009BA00BE00C017E82C0030C1000030C000003073
:1009CA00BF000030BE004C080319EC2CED2CF22CB1
:1009DA004D08031DF12CF22CFB2C0030BD00003019
:1009EA00BC000030BB000030BA00D62F3A08F00035
:1009FA0040080A128A15F4230A128A11710883120E
:100A0A000313D3007008D2005208C200C301C40104
:100A1A00C5014508CB004408CA004308C90042087A
:100A2A00C8005308C200C301C401C5014508D1006A
:100A3A004408D0004308CF004208CE003B08F0002B
:100A4A003F080A128A15F4230A128A1171088312BE
:100A5A000313D3007008D2005208C200C301C401B4
:100A6A00C5014208C807430803110318013E0319C8
:100A7A003F2DC907440803110318013E0319462DE7
:100A8A00CA07450803110318013E03194D2DCB0768
:100A9A005308C200C301C401C5014208CE07430876
:100AAA0003110318013E03195B2DCF0744080311F4
:100ABA000318013E0319622DD007450803110318D4
:100ACA00013E0319692DD1073C08F0003E080A12BD
:100ADA008A15F4230A128A11710883120313D300A8
:100AEA007008D2005208C200C301C401C5014208FD
:100AFA00C807430803110318013E0319852DC907C6
:100B0A00440803110318013E03198C2DCA0745082E
:100B1A0003110318013E0319932DCB075308C20092
:100B2A00C301C401C5014208CE07430803110318D3
:100B3A00013E0319A12DCF07440803110318013EF2
:100B4A000319A82DD007450803110318013E0319FC
:100B5A00AF2DD1070830C2000310C80DC90DCA0D48
:100B6A00CB0DC20BB12D3B08F0003E080A128A15C4
:100B7A00F4230A128A11710883120313D30070082E
:100B8A00D2005208C2005308C300C401C50142087A
:100B9A00C807430803110318013E0319D52DC907D5
:100BAA00440803110318013E0319DC2DCA0745083E
:100BBA0003110318013E0319E32DCB073A08F0008D
:100BCA003F080A128A15F4230A128A11710883123D
:100BDA000313D3007008D2005208C2005308C3009E
:100BEA00C401C5014208C807430803110318013E9E
:100BFA000319002EC907440803110318013E0319FB
:100C0A00072ECA07450803110318013E03190E2EC1
:100C1A00CB070830C2000310C80DC90DCA0DCB0D91
:100C2A00C20B102E3A08F0003E080A128A15F42365
:100C3A000A128A11710883120313D3007008D200B2
:100C4A005208C2005308C300C401C5014208C807BC
:100C5A00430803110318013E0319342EC907440837
:100C6A0003110318013E03193B2ECA074508031155
:100C7A000318013E0319422ECB073B08F000400837
:100C8A000A128A15F4230A128A11710883120313AD
:100C9A00D3007008D2005208C2005308C300C4012E
:100CAA00C5014208CE07430803110318013E031980
:100CBA005F2ECF07440803110318013E0319662E5D
:100CCA00D007450803110318013E03196D2ED107F9
:100CDA003C08F0003F080A128A15F4230A128A1106
:100CEA00710883120313D3007008D2005208C2009D
:100CFA005308C300C401C5014208CE0743080311C3
:100D0A000318013E03198A2ECF074408031103185A
:100D1A00013E0319912ED007450803110318013E1D
:100D2A000319982ED1073C08F00040080A128A15C8
:100D3A00F4230A128A11710883120313D30070086C
:100D4A00D2005208C2005308C300C401C5010830CA
:100D5A000310C20DC30DC40DC50DFF3E031DAD2EFC
:100D6A004208CE07430803110318013E0319BE2E99
:100D7A00CF07440803110318013E0319C52ED007F3
:100D8A00450803110318013E0319CC2ED107480860
:100D9A00C2004908C3004A08C4004B08C5001830FD
:100DAA000310C50CC40CC30CC20CFF3E031DD52E88
:100DBA004208CE07430803110318013E0319E62E21
:100DCA00CF07440803110318013E0319ED2ED0077B
:100DDA00450803110318013E0319F42ED107083000
:100DEA00C2000310C80DC90DCA0DCB0DC20BF62ED9
:100DFA004D084C07C200C301C30D4208823ED2000F
:100E0A0043080318013EFF3ED300282F0130C200D9
:100E1A000310CE0DCF0DD00DD10DC20B0D2FCB1F50
:100E2A00172F182F192F4E140130C2000310C80DA6
:100E3A00C90DCA0DCB0DC20B1B2FFF30D2070318E9
:100E4A00D30AFF30D307D01F2B2F2C2F0B2FCC0107
:100E5A00CB1F302F312F4D2FFF304805C200FF30F6
:100E6A004905C300FF304A05C4007F304B05C50061
:100E7A0045084404430442040319442F452F482FCC
:100E8A000130CC004D2F4E1C4B2F4C2F4D2F452F90
:100E9A004C080319512F522F832F0130CE070030EF
:100EAA0003180130CF07003003180130D007003093
:100EBA0003180130D107511C632F642F832F4E086A
:100ECA00C2004F08C3005008C4005108C5000130D1
:100EDA00C600450DC50CC40CC30CC20CC60B6E2F44
:100EEA004508D1004408D0004308CF004208CE008C
:100EFA000130D2070318D30A0030D3075308803AC7
:100F0A00FF0080307F02031D8C2FFF305202031C2A
:100F1A008F2F902F9B2F7F3083120313D1008030A5
:100F2A00D0000030CF000030CE00CC2F8312031344
:100F3A005308803AFF0080307F02031DA62F01303C
:100F4A0052020318A92FAA2FB62F003083120313B7
:100F5A00D1000030D0000030CF000030CE00C701F1
:100F6A00CC2F831203135208CD00FF30CE05FF3079
:100F7A00CF057F30D0050030D1054D1CC52FC62FB7
:100F8A00C72FD0174D08C2000310420CD1004708E2
:100F9A00D1045108BD005008BC004F08BB004E08E0
:100FAA00BA0008008317B030FD000B30FE00D430C1
:100FBA00FF00903084000A128A15C5230A128A118A
:100FCA00831603130A128A1105200A128A11EE00E7
:100FDA0083160317B001B101B201B3018313D730ED
:100FEA008400EA300A128A1106200A128A11830141
:100FFA000A128A15632D08308A000408840A8207B7
:10100A0000343F3406345B344F3466346D347D34F7
:10101A0007347F346F3477341F344E343D344F34C1
:06102A0047347B3437342B
:10174C000130831203139F00831603139F010800BB
:10175C000630F200F20BB02B0000831203139F141F
:10176C009F18B92BBA2BB62B1E08F1008316031346
:10177C001E08F00008007E088A007F0882000A120A
:10178C008A15C1230A128A158000840A04087D0672
:10179C0003190034FF0A0319FE0AC52B0034003468
:1017AC00F0344134003400344834423400340034D2
:1017BC009634423400340034C8344234003400349B
:1017CC001634433400340034483443340034003489
:1017DC009634433400340034FA344334F800F401C2
:1017EC00F5017008F200F3017208F6007308F700B7
:1017FC00781C012C022C082C7608F4070318F50A27
:10180C007708F50701300310F60DF70DFF3E031DA9
:10181C00092C0310F80C7808031D152C162CFE2B24
:10182C007508F1007408F0000800770878040319B3
:10183C00202C212C4E2C0130FB002D2C01300310C0
:10184C00F70DF80DFF3E031D252C0130FB07F81F8B
:10185C00302C312C242C78087A02031D372C770875
:10186C007902031C3A2C3B2C412C7708F90278089E
:10187C00031CFA03FA0201300310F80CF70CFF3EBC
:10188C00031D422C0130FB02031D4D2C4E2C312C20
:10189C007A08F8007908F7000800F301F4017308DE
:1018AC007007F2007208840083130008013E840064
:1018BC000A128A1500200A128A1583120313930048
:1018CC0083160313141C6B2C6C2C662C0130F30741
:1018DC000318F40A0030F4077408803AFF008030D3
:1018EC007F02031D7B2C04307302031C7E2C7F2C87
:1018FC00552C71080B3E84000A128A1500200A121E
:10190C008A1583120313930083160313141C8F2C54
:10191C00902C8A2C83120313071007140800F4016F
:10192C00F5017008710403199C2C9D2CD22C0130EC
:10193C00F600A92C01300310F00DF10DFF3E031D34
:10194C00A12C0130F607F11FAC2CAD2CA02C0130D2
:10195C000310F40DF50DFF3E031DAE2C7108730240
:10196C00031DBA2C70087202031CBD2CBE2CC52C96
:10197C007008F2027108031CF303F30274140130B3
:10198C000310F10CF00CFF3E031DC62C0130F602C7
:10199C00031DD12CD22CAD2C7508F1007408F0006D
:1019AC0008000310831203136A0D6B0D83160313C7
:1019BC00A1002108031DE32CE42CEF2C0030831232
:1019CC000313EB000030EA000030E9000030E800BF
:1019DC00622D831203136808EC006908ED006A0895
:1019EC00EE006B08EF001F300310EF0CEE0CED0C4B
:1019FC00EC0CFF3E031DFA2C6C0883160313A0009D
:101A0C0083120313EA17FF30E805FF30E905FF30B6
:101A1C00EA050030EB05963083160313A102A11FD3
:101A2C00182D192D352D2108803A973E03181F2D9E
:101A3C00202D212DE42C0130031083120313EB0C09
:101A4C00EA0CE90CE80CFF3E031D222D0130831635
:101A5C000313A107031D332D342D212D502D2030C0
:101A6C002102031C3A2D3B2D4B2DE42C013083120B
:101A7C000313EC000310E80DE90DEA0DEB0DEC0B74
:101A8C00402D013083160313A1022108031D4F2D95
:101A9C00502D3C2D20080319542D552D622D8312E9
:101AAC000313E809E909EA09EB09E80A0319E90A49
:101ABC000319EA0A0319EB0A08008316031307102B
:101ACC00051407108711871206148614831203134A
:101ADC000710403083160313940020308312031335
:101AEC0094000A128A15A6230A128A158316031368
:101AFC00E301E201DB01DC010A128A15AE230A12B2
:101B0C008A15710883160313ED007008EC006D083C
:101B1C00A3006C08A2006308A4000A128A15BE2652
:101B2C000A128A15831603132308EB002208EA0015
:101B3C0003306D02983003196C02031CA62DA72DDF
:101B4C00AA2D0130E200AB2DE20162080319AF2D82
:101B5C00B02DCE2D0130DB070318DC0A0030DC077A
:101B6C0000305C02193003195B02031CBE2DBF2D23
:101B7C00FC2DDB01DC0161080319C52DC72D0130DB
:101B8C00C82D0030E10061080319CD2DCE2DEB2DB1
:101B9C006B0883120313A100831603136A088312C4
:101BAC000313A000E630A2000A128A110E200A12BA
:101BBC008A15E630F000831603136308F1000A124D
:101BCC008A1553240A128A15FC2D0030D6000030D9
:101BDC00D5000030D4000030D300D330F0006308BF
:101BEC00F1000A128A1553240A128A15343083160E
:101BFC000313D200F130D100D10B022ED20B022EE6
:101C0C00822D0A128A110028F800780803190F2E69
:101C1C00102E242EF31F132E142E242E7009FA00CE
:101C2C007109FB007209FC007309FD00FA0A031923
:101C3C00FB0A0319FC0A0319FD0A2C2E7308FD007C
:101C4C007208FC007108FB007008FA00730872043B
:101C5C0071047004031D332E342E3D2E0030F3001E
:101C6C000030F2000030F1000030F000BD2E963054
:101C7C00F9004B2E0130F90701300310FD0CFC0C60
:101C8C00FB0CFA0CFF3E031D432EFE307D05031D9D
:101C9C00502E512E402E6B2E0130F9070130FA07D1
:101CAC00003003180130FB07003003180130FC072B
:101CBC00003003180130FD0701300310FD0CFC0C43
:101CCC00FB0CFA0CFF3E031D632EFF307D05031D3C
:101CDC00702E712E522E7D2E0130F9020130F4003F
:101CEC000310FA0DFB0DFC0DFD0DF40B762EFC1BF9
:101CFC00802E812E872E023079020318862E872E95
:101D0C00722E79188A2E8B2E932EFF30FA05FF3007
:101D1C00FB057F30FC05FF30FD050310F90C79083D
:101D2C00F400F501F601F70118300310F40DF50D70
:101D3C00F60DF70DFF3E031D9B2E7408FA04750873
:101D4C00FB047608FC047708FD0478080319AF2E11
:101D5C00B02EB52EF31FB32EB42EB52EFD177D0865
:101D6C00F3007C08F2007B08F1007A08F000080010
:101D7C00403083120313D7008030D6000030D500DA
:101D8C000030D4004130BD008030BC000030BB00BE
:101D9C000030BA004430A3003330A200C030A100A0
:101DAC000030A0008316031322084F3EF0002308D6
:101DBC000318013EFF3EF100F201F30100300A125C
:101DCC008A150A260A128A15730883120313A700B0
:101DDC007208A6007108A5007008A4000A128A11E6
:101DEC007B200A128A15831203132308C1002208D0
:101DFC00C0002108BF002008BE000A128A119524D9
:101E0C000A128A15831203133D08DB003C08DA0022
:101E1C003B08D9003A08D8000A128A1145220A1246
:101E2C008A1583120313570883160313CC008312ED
:101E3C000313560883160313CB00831203135508A0
:101E4C0083160313CA008312031354088316031357
:101E5C00C90090308400A930A5002030A60083175B
:101E6C000008A700040AA80025088400831327088B
:101E7C008000040AA50028088400A60B352F24082E
:101E8C00A50001300310A50DFF3E031D482F0310C4
:101E9C00250DA93E8400000883120313BA00840A9E
:101EAC000008BB00840A0008BC00840A0008BD00BE
:101EBC004130A3008030A2000030A1000030A0000F
:101ECC00C030D7008030D6000030D5000030D400B0
:101EDC00831603134C0883120313DB0083160313BE
:101EEC004B0883120313DA00831603134A08831278
:101EFC000313D90083160313490883120313D80064
:101F0C000A128A1145220A128A15831203135708E2
:101F1C00A7005608A6005508A5005408A4000A12EC
:101F2C008A117B200A128A15831203132308C1001D
:101F3C002208C0002108BF002008BE000A128A1126
:101F4C0095240A128A15831203133D088316031372
:101F5C00D000831203133C0883160313CF008312A3
:101F6C0003133B0883160313CE00831203133A08A2
:101F7C0083160313CD00500883120313DB00831662
:101F8C0003134F0883120313DA00831603134E084E
:101F9C0083120313D900831603134D088312031302
:101FAC00D8003F30D7000030D6000030D5000030CC
:101FBC00D4000A128A1145220A128A1583120313BD
:101FCC005708EB005608EA005508E9005408E800E9
:101FDC000A128A15D7240A128A1583120313690868
:101FEC0083160313A30083120313680883160313C9
:041FFC00A200080037
:00000001FF
